:100000000200037590FF12000B80F8227B007C0039
:100010007955120037227B007C0079307E0812006F
:1000200048227B007C00120082F9227B007C007950
:10003000307E0812005C2274A012012FEC120167BE
:10004000E91201671201A62274A012012FEC12011D
:1000500067E712016709DEF91201A62274A01201F6
:100060002FEC12016774A112012F12018DF709DE26
:10007000041201A622C290D2910000000000C29199
:1000800080E874A012012FEC12016712008F227415
:10009000A112012F12018DF91201A62274A01201E2
:1000A0002FEB120167EC12016774A112012F80BAC5
:1000B00074A012012FEB120167EC120167E9120123
:1000C000671201A62274A012012FEB120167EC1235
:1000D0000167E712016709DEF91201A62274A01276
:1000E000012FEB120167EC120167118F2274A07AC5
:1000F00008C2900000000000C291335005D2900267
:100100000104C290D2910000000000C291DAEBD24B
:10011000900000D291000000000030900280CEC21A
:1001200091C2900000000000D2910000D290227A8B
:1001300008D290D2910000000000C29000000000A0
:1001400000C291335005D29002014DC290D291006D
:1001500000000000C291DAEBD290000000D29100C2
:1001600000000000C291227A08335005D2900201AB
:1001700073C290D2910000000000C291DAEBD290DD
:10018000000000D2910000000000C291227A08D243
:1001900090C291000000000000D291C3309001B3E2
:1001A00033DAEEC29122C2900000000000D291002A
:1001B00000000000D290227B807C007981113722E0
:1001C00074A0312F748031677400316774C0316757
:1001D000318DF90000000000C290D29100000000B3
:1001E00000C291318DFA31A6227B807C007900110A
:1001F00037227B807C001201FA2274A0312FEB3170
:0E02000067EC316774403167318DF931A62209
:00000001FF
